{
  "contractName": "FaucetERC20",
  "abi": [
    {
      "constant": true,
      "inputs": [
        {
          "name": "",
          "type": "address"
        }
      ],
      "name": "timeLock",
      "outputs": [
        {
          "name": "",
          "type": "uint256"
        }
      ],
      "payable": false,
      "stateMutability": "view",
      "type": "function"
    },
    {
      "constant": false,
      "inputs": [],
      "name": "renounceOwnership",
      "outputs": [],
      "payable": false,
      "stateMutability": "nonpayable",
      "type": "function"
    },
    {
      "constant": true,
      "inputs": [],
      "name": "owner",
      "outputs": [
        {
          "name": "",
          "type": "address"
        }
      ],
      "payable": false,
      "stateMutability": "view",
      "type": "function"
    },
    {
      "constant": true,
      "inputs": [],
      "name": "isOwner",
      "outputs": [
        {
          "name": "",
          "type": "bool"
        }
      ],
      "payable": false,
      "stateMutability": "view",
      "type": "function"
    },
    {
      "constant": true,
      "inputs": [],
      "name": "amount",
      "outputs": [
        {
          "name": "",
          "type": "uint256"
        }
      ],
      "payable": false,
      "stateMutability": "view",
      "type": "function"
    },
    {
      "constant": false,
      "inputs": [
        {
          "name": "newOwner",
          "type": "address"
        }
      ],
      "name": "transferOwnership",
      "outputs": [],
      "payable": false,
      "stateMutability": "nonpayable",
      "type": "function"
    },
    {
      "constant": true,
      "inputs": [],
      "name": "token",
      "outputs": [
        {
          "name": "",
          "type": "address"
        }
      ],
      "payable": false,
      "stateMutability": "view",
      "type": "function"
    },
    {
      "inputs": [
        {
          "name": "_amount",
          "type": "uint256"
        }
      ],
      "payable": true,
      "stateMutability": "payable",
      "type": "constructor"
    },
    {
      "anonymous": false,
      "inputs": [
        {
          "indexed": true,
          "name": "previousOwner",
          "type": "address"
        },
        {
          "indexed": true,
          "name": "newOwner",
          "type": "address"
        }
      ],
      "name": "OwnershipTransferred",
      "type": "event"
    },
    {
      "constant": false,
      "inputs": [
        {
          "name": "_token",
          "type": "address"
        }
      ],
      "name": "setToken",
      "outputs": [],
      "payable": false,
      "stateMutability": "nonpayable",
      "type": "function"
    },
    {
      "constant": false,
      "inputs": [
        {
          "name": "_amount",
          "type": "uint256"
        }
      ],
      "name": "setAmount",
      "outputs": [],
      "payable": false,
      "stateMutability": "nonpayable",
      "type": "function"
    },
    {
      "constant": false,
      "inputs": [
        {
          "name": "receiver",
          "type": "address"
        }
      ],
      "name": "getTokens",
      "outputs": [],
      "payable": false,
      "stateMutability": "nonpayable",
      "type": "function"
    },
    {
      "constant": false,
      "inputs": [
        {
          "name": "_amount",
          "type": "uint256"
        }
      ],
      "name": "withdrawAmount",
      "outputs": [],
      "payable": false,
      "stateMutability": "nonpayable",
      "type": "function"
    }
  ],
  "bytecode": "0x60806040526040516020806105af833981016040819052905160008054600160a060020a03191633178082559192600160a060020a0392909216917f8be0079c531659141344cd1fd0a4f28419497f9722a3daafe3b4186f6b6457e0908290a360015561053e806100716000396000f3006080604052600436106100ae5763ffffffff7c01000000000000000000000000000000000000000000000000000000006000350416630562b9f781146100b3578063144fa6d7146100cd578063271f88b4146100ee5780634349656814610106578063450efe2114610139578063715018a61461015a5780638da5cb5b1461016f5780638f32d59b146101a0578063aa8c217c146101c9578063f2fde38b146101de578063fc0c546a146101ff575b600080fd5b3480156100bf57600080fd5b506100cb600435610214565b005b3480156100d957600080fd5b506100cb600160a060020a03600435166102c3565b3480156100fa57600080fd5b506100cb600435610305565b34801561011257600080fd5b50610127600160a060020a036004351661031d565b60408051918252519081900360200190f35b34801561014557600080fd5b506100cb600160a060020a036004351661032f565b34801561016657600080fd5b506100cb6103d7565b34801561017b57600080fd5b50610184610441565b60408051600160a060020a039092168252519081900360200190f35b3480156101ac57600080fd5b506101b5610450565b604080519115158252519081900360200190f35b3480156101d557600080fd5b50610127610461565b3480156101ea57600080fd5b506100cb600160a060020a0360043516610467565b34801561020b57600080fd5b50610184610486565b61021c610450565b151561022757600080fd5b600254604080517fa9059cbb000000000000000000000000000000000000000000000000000000008152336004820152602481018490529051600160a060020a039092169163a9059cbb916044808201926020929091908290030181600087803b15801561029457600080fd5b505af11580156102a8573d6000803e3d6000fd5b505050506040513d60208110156102be57600080fd5b505050565b6102cb610450565b15156102d657600080fd5b6002805473ffffffffffffffffffffffffffffffffffffffff1916600160a060020a0392909216919091179055565b61030d610450565b151561031857600080fd5b600155565b60036020526000908152604090205481565b600160a060020a038116600090815260036020526040902054421161035357600080fd5b600160a060020a038082166000818152600360209081526040808320620151804201905560025460015482517fa9059cbb00000000000000000000000000000000000000000000000000000000815260048101969096526024860152905194169363a9059cbb93604480820194918390030190829087803b15801561029457600080fd5b6103df610450565b15156103ea57600080fd5b60008054604051600160a060020a03909116907f8be0079c531659141344cd1fd0a4f28419497f9722a3daafe3b4186f6b6457e0908390a36000805473ffffffffffffffffffffffffffffffffffffffff19169055565b600054600160a060020a031690565b600054600160a060020a0316331490565b60015481565b61046f610450565b151561047a57600080fd5b61048381610495565b50565b600254600160a060020a031681565b600160a060020a03811615156104aa57600080fd5b60008054604051600160a060020a03808516939216917f8be0079c531659141344cd1fd0a4f28419497f9722a3daafe3b4186f6b6457e091a36000805473ffffffffffffffffffffffffffffffffffffffff1916600160a060020a03929092169190911790555600a165627a7a7230582078a95338016d7c8438879591edf0bbd8e740133532be4ee2e07146a7d8d34db40029",
  "source": "\npragma solidity ^0.4.24;\n\nimport \"openzeppelin-solidity/contracts/token/ERC20/ERC20.sol\";\nimport { Ownable } from \"openzeppelin-solidity/contracts/ownership/Ownable.sol\";\n\n/// ERC20 Token Faucet\ncontract FaucetERC20 is Ownable {\n    uint256 public amount;\n    ERC20 public token;\n    mapping (address => uint256) public timeLock;\n\n    constructor(uint256 _amount) public payable {\n        amount = _amount;\n    }\n\n    function setToken(address _token) public onlyOwner {\n      token = ERC20(_token);\n    }\n\n    function setAmount(uint256 _amount) public onlyOwner {\n      amount = _amount;\n    }\n\n    function getTokens(address receiver) public {\n        require(timeLock[receiver] < now);\n\n        timeLock[receiver] = now + 24 hours;\n        token.transfer(receiver, amount);\n    }\n\n    function withdrawAmount(uint256 _amount) public onlyOwner {\n      token.transfer(msg.sender, _amount);\n    }\n}",
  "sourcePath": "/Users/angela/matic/mainnet-faucet/contracts/FaucetERC20.sol",
  "compiler": {
    "name": "solc",
    "version": "0.4.24+commit.e67f0147.Emscripten.clang"
  },
  "schemaVersion": "3.0.16",
  "updatedAt": "2019-10-14T13:34:11.530Z",
  "devdoc": {
    "methods": {
      "isOwner()": {
        "return": "true if `msg.sender` is the owner of the contract."
      },
      "owner()": {
        "return": "the address of the owner."
      },
      "renounceOwnership()": {
        "details": "Allows the current owner to relinquish control of the contract."
      },
      "transferOwnership(address)": {
        "details": "Allows the current owner to transfer control of the contract to a newOwner.",
        "params": {
          "newOwner": "The address to transfer ownership to."
        }
      }
    }
  },
  "userdoc": {
    "methods": {
      "renounceOwnership()": {
        "notice": "Renouncing to ownership will leave the contract without an owner. It will not be possible to call the functions with the `onlyOwner` modifier anymore."
      }
    }
  }
}